{
  "_format": "hh-sol-artifact-1",
  "contractName": "MyNFT",
  "sourceName": "contracts/MyNFT.sol",
  "abi": [
    {
      "inputs": [],
      "stateMutability": "nonpayable",
      "type": "constructor"
    },
    {
      "anonymous": false,
      "inputs": [
        {
          "indexed": true,
          "internalType": "address",
          "name": "owner",
          "type": "address"
        },
        {
          "indexed": true,
          "internalType": "address",
          "name": "approved",
          "type": "address"
        },
        {
          "indexed": true,
          "internalType": "uint256",
          "name": "tokenId",
          "type": "uint256"
        }
      ],
      "name": "Approval",
      "type": "event"
    },
    {
      "anonymous": false,
      "inputs": [
        {
          "indexed": true,
          "internalType": "address",
          "name": "owner",
          "type": "address"
        },
        {
          "indexed": true,
          "internalType": "address",
          "name": "operator",
          "type": "address"
        },
        {
          "indexed": false,
          "internalType": "bool",
          "name": "approved",
          "type": "bool"
        }
      ],
      "name": "ApprovalForAll",
      "type": "event"
    },
    {
      "anonymous": false,
      "inputs": [
        {
          "indexed": false,
          "internalType": "address",
          "name": "sender",
          "type": "address"
        },
        {
          "indexed": false,
          "internalType": "uint256",
          "name": "tokenId",
          "type": "uint256"
        }
      ],
      "name": "NewNFTMinted",
      "type": "event"
    },
    {
      "anonymous": false,
      "inputs": [
        {
          "indexed": true,
          "internalType": "address",
          "name": "from",
          "type": "address"
        },
        {
          "indexed": true,
          "internalType": "address",
          "name": "to",
          "type": "address"
        },
        {
          "indexed": true,
          "internalType": "uint256",
          "name": "tokenId",
          "type": "uint256"
        }
      ],
      "name": "Transfer",
      "type": "event"
    },
    {
      "inputs": [
        {
          "internalType": "address",
          "name": "to",
          "type": "address"
        },
        {
          "internalType": "uint256",
          "name": "tokenId",
          "type": "uint256"
        }
      ],
      "name": "approve",
      "outputs": [],
      "stateMutability": "nonpayable",
      "type": "function"
    },
    {
      "inputs": [
        {
          "internalType": "address",
          "name": "owner",
          "type": "address"
        }
      ],
      "name": "balanceOf",
      "outputs": [
        {
          "internalType": "uint256",
          "name": "",
          "type": "uint256"
        }
      ],
      "stateMutability": "view",
      "type": "function"
    },
    {
      "inputs": [
        {
          "internalType": "uint256",
          "name": "tokenId",
          "type": "uint256"
        }
      ],
      "name": "getApproved",
      "outputs": [
        {
          "internalType": "address",
          "name": "",
          "type": "address"
        }
      ],
      "stateMutability": "view",
      "type": "function"
    },
    {
      "inputs": [],
      "name": "getTotalNFTsMintedSoFar",
      "outputs": [
        {
          "internalType": "uint256",
          "name": "",
          "type": "uint256"
        }
      ],
      "stateMutability": "view",
      "type": "function"
    },
    {
      "inputs": [
        {
          "internalType": "address",
          "name": "owner",
          "type": "address"
        },
        {
          "internalType": "address",
          "name": "operator",
          "type": "address"
        }
      ],
      "name": "isApprovedForAll",
      "outputs": [
        {
          "internalType": "bool",
          "name": "",
          "type": "bool"
        }
      ],
      "stateMutability": "view",
      "type": "function"
    },
    {
      "inputs": [],
      "name": "makeNFT",
      "outputs": [],
      "stateMutability": "nonpayable",
      "type": "function"
    },
    {
      "inputs": [],
      "name": "name",
      "outputs": [
        {
          "internalType": "string",
          "name": "",
          "type": "string"
        }
      ],
      "stateMutability": "view",
      "type": "function"
    },
    {
      "inputs": [
        {
          "internalType": "uint256",
          "name": "tokenId",
          "type": "uint256"
        }
      ],
      "name": "ownerOf",
      "outputs": [
        {
          "internalType": "address",
          "name": "",
          "type": "address"
        }
      ],
      "stateMutability": "view",
      "type": "function"
    },
    {
      "inputs": [
        {
          "internalType": "uint256",
          "name": "tokenId",
          "type": "uint256"
        }
      ],
      "name": "pickRandomFirstWord",
      "outputs": [
        {
          "internalType": "string",
          "name": "",
          "type": "string"
        }
      ],
      "stateMutability": "view",
      "type": "function"
    },
    {
      "inputs": [
        {
          "internalType": "uint256",
          "name": "tokenId",
          "type": "uint256"
        }
      ],
      "name": "pickRandomSecondWord",
      "outputs": [
        {
          "internalType": "string",
          "name": "",
          "type": "string"
        }
      ],
      "stateMutability": "view",
      "type": "function"
    },
    {
      "inputs": [
        {
          "internalType": "uint256",
          "name": "tokenId",
          "type": "uint256"
        }
      ],
      "name": "pickRandomThirdWord",
      "outputs": [
        {
          "internalType": "string",
          "name": "",
          "type": "string"
        }
      ],
      "stateMutability": "view",
      "type": "function"
    },
    {
      "inputs": [
        {
          "internalType": "address",
          "name": "from",
          "type": "address"
        },
        {
          "internalType": "address",
          "name": "to",
          "type": "address"
        },
        {
          "internalType": "uint256",
          "name": "tokenId",
          "type": "uint256"
        }
      ],
      "name": "safeTransferFrom",
      "outputs": [],
      "stateMutability": "nonpayable",
      "type": "function"
    },
    {
      "inputs": [
        {
          "internalType": "address",
          "name": "from",
          "type": "address"
        },
        {
          "internalType": "address",
          "name": "to",
          "type": "address"
        },
        {
          "internalType": "uint256",
          "name": "tokenId",
          "type": "uint256"
        },
        {
          "internalType": "bytes",
          "name": "_data",
          "type": "bytes"
        }
      ],
      "name": "safeTransferFrom",
      "outputs": [],
      "stateMutability": "nonpayable",
      "type": "function"
    },
    {
      "inputs": [
        {
          "internalType": "address",
          "name": "operator",
          "type": "address"
        },
        {
          "internalType": "bool",
          "name": "approved",
          "type": "bool"
        }
      ],
      "name": "setApprovalForAll",
      "outputs": [],
      "stateMutability": "nonpayable",
      "type": "function"
    },
    {
      "inputs": [
        {
          "internalType": "bytes4",
          "name": "interfaceId",
          "type": "bytes4"
        }
      ],
      "name": "supportsInterface",
      "outputs": [
        {
          "internalType": "bool",
          "name": "",
          "type": "bool"
        }
      ],
      "stateMutability": "view",
      "type": "function"
    },
    {
      "inputs": [],
      "name": "symbol",
      "outputs": [
        {
          "internalType": "string",
          "name": "",
          "type": "string"
        }
      ],
      "stateMutability": "view",
      "type": "function"
    },
    {
      "inputs": [
        {
          "internalType": "uint256",
          "name": "tokenId",
          "type": "uint256"
        }
      ],
      "name": "tokenURI",
      "outputs": [
        {
          "internalType": "string",
          "name": "",
          "type": "string"
        }
      ],
      "stateMutability": "view",
      "type": "function"
    },
    {
      "inputs": [
        {
          "internalType": "address",
          "name": "from",
          "type": "address"
        },
        {
          "internalType": "address",
          "name": "to",
          "type": "address"
        },
        {
          "internalType": "uint256",
          "name": "tokenId",
          "type": "uint256"
        }
      ],
      "name": "transferFrom",
      "outputs": [],
      "stateMutability": "nonpayable",
      "type": "function"
    }
  ],
  "bytecode": "0x608060405260405180610160016040528061012f8152602001620041e461012f913960089080519060200190620000389291906200067e565b506040518060c001604052806040518060400160405280600881526020017f4d656e6163696e6700000000000000000000000000000000000000000000000081525081526020016040518060400160405280600781526020017f56696f6c656e740000000000000000000000000000000000000000000000000081525081526020016040518060400160405280600681526020017f437265657079000000000000000000000000000000000000000000000000000081525081526020016040518060400160405280600581526020017f517569636b00000000000000000000000000000000000000000000000000000081525081526020016040518060400160405280600681526020017f446561646c79000000000000000000000000000000000000000000000000000081525081526020016040518060400160405280600881526020017f436861726d696e670000000000000000000000000000000000000000000000008152508152506009906006620001b69291906200070f565b506040518060c001604052806040518060400160405280600681526020017f537069646572000000000000000000000000000000000000000000000000000081525081526020016040518060400160405280600681526020017f4d6f6e6b6579000000000000000000000000000000000000000000000000000081525081526020016040518060400160405280600881526020017f537175697272656c00000000000000000000000000000000000000000000000081525081526020016040518060400160405280600781526020017f50656e6775696e0000000000000000000000000000000000000000000000000081525081526020016040518060400160405280600581526020017f486970706f00000000000000000000000000000000000000000000000000000081525081526020016040518060400160405280600481526020017f4c696f6e00000000000000000000000000000000000000000000000000000000815250815250600a906006620003349291906200070f565b506040518060c001604052806040518060400160405280600581526020017f436c6f776e00000000000000000000000000000000000000000000000000000081525081526020016040518060400160405280600681526020017f526170706572000000000000000000000000000000000000000000000000000081525081526020016040518060400160405280600781526020017f4a616e69746f720000000000000000000000000000000000000000000000000081525081526020016040518060400160405280600781526020017f546561636865720000000000000000000000000000000000000000000000000081525081526020016040518060400160405280600481526020017f436865660000000000000000000000000000000000000000000000000000000081525081526020016040518060400160405280600681526020017f44616e6365720000000000000000000000000000000000000000000000000000815250815250600b906006620004b29291906200070f565b50348015620004c057600080fd5b506040518060400160405280600981526020017f5371756172654e465400000000000000000000000000000000000000000000008152506040518060400160405280600681526020017f53515541524500000000000000000000000000000000000000000000000000008152508160009080519060200190620005459291906200067e565b5080600190805190602001906200055e9291906200067e565b505050620005ac6040518060400160405280601e81526020017f6769746875622f736876696e20636f6e7472616374206465706c6f7965640000815250620005b260201b620010f81760201c565b62000930565b6200065281604051602401620005c9919062000844565b6040516020818303038152906040527f41304fac000000000000000000000000000000000000000000000000000000007bffffffffffffffffffffffffffffffffffffffffffffffffffffffff19166020820180517bffffffffffffffffffffffffffffffffffffffffffffffffffffffff83818316178352505050506200065560201b60201c565b50565b60008151905060006a636f6e736f6c652e6c6f679050602083016000808483855afa5050505050565b8280546200068c90620008ba565b90600052602060002090601f016020900481019282620006b05760008555620006fc565b82601f10620006cb57805160ff1916838001178555620006fc565b82800160010185558215620006fc579182015b82811115620006fb578251825591602001919060010190620006de565b5b5090506200070b919062000776565b5090565b82805482825590600052602060002090810192821562000763579160200282015b8281111562000762578251829080519060200190620007519291906200067e565b509160200191906001019062000730565b5b50905062000772919062000795565b5090565b5b808211156200079157600081600090555060010162000777565b5090565b5b80821115620007b95760008181620007af9190620007bd565b5060010162000796565b5090565b508054620007cb90620008ba565b6000825580601f10620007df575062000800565b601f016020900490600052602060002090810190620007ff919062000776565b5b50565b6000620008108262000868565b6200081c818562000873565b93506200082e81856020860162000884565b62000839816200091f565b840191505092915050565b6000602082019050818103600083015262000860818462000803565b905092915050565b600081519050919050565b600082825260208201905092915050565b60005b83811015620008a457808201518184015260208101905062000887565b83811115620008b4576000848401525b50505050565b60006002820490506001821680620008d357607f821691505b60208210811415620008ea57620008e9620008f0565b5b50919050565b7f4e487b7100000000000000000000000000000000000000000000000000000000600052602260045260246000fd5b6000601f19601f8301169050919050565b6138a480620009406000396000f3fe608060405234801561001057600080fd5b50600436106101165760003560e01c806370a08231116100a2578063b187301f11610071578063b187301f146102df578063b88d4fde1461030f578063c575757a1461032b578063c87b56dd1461035b578063e985e9c51461038b57610116565b806370a082311461026b57806395d89b411461029b578063a22cb465146102b9578063b036b4bd146102d557610116565b8063095ea7b3116100e9578063095ea7b3146101b757806323b872dd146101d35780632de38d68146101ef57806342842e0e1461021f5780636352211e1461023b57610116565b806301ffc9a71461011b578063060475901461014b57806306fdde0314610169578063081812fc14610187575b600080fd5b610135600480360381019061013091906124f8565b6103bb565b604051610142919061311a565b60405180910390f35b61015361049d565b6040516101609190613395565b60405180910390f35b6101716104ae565b60405161017e9190613135565b60405180910390f35b6101a1600480360381019061019c919061254a565b610540565b6040516101ae919061308a565b60405180910390f35b6101d160048036038101906101cc91906124bc565b6105c5565b005b6101ed60048036038101906101e891906123b6565b6106dd565b005b6102096004803603810190610204919061254a565b61073d565b6040516102169190613135565b60405180910390f35b610239600480360381019061023491906123b6565b61085b565b005b6102556004803603810190610250919061254a565b61087b565b604051610262919061308a565b60405180910390f35b61028560048036038101906102809190612351565b61092d565b6040516102929190613395565b60405180910390f35b6102a36109e5565b6040516102b09190613135565b60405180910390f35b6102d360048036038101906102ce9190612480565b610a77565b005b6102dd610a8d565b005b6102f960048036038101906102f4919061254a565b610c74565b6040516103069190613135565b60405180910390f35b61032960048036038101906103249190612405565b610d92565b005b6103456004803603810190610340919061254a565b610df4565b6040516103529190613135565b60405180910390f35b6103756004803603810190610370919061254a565b610f12565b6040516103829190613135565b60405180910390f35b6103a560048036038101906103a0919061237a565b611064565b6040516103b2919061311a565b60405180910390f35b60007f80ac58cd000000000000000000000000000000000000000000000000000000007bffffffffffffffffffffffffffffffffffffffffffffffffffffffff1916827bffffffffffffffffffffffffffffffffffffffffffffffffffffffff1916148061048657507f5b5e139f000000000000000000000000000000000000000000000000000000007bffffffffffffffffffffffffffffffffffffffffffffffffffffffff1916827bffffffffffffffffffffffffffffffffffffffffffffffffffffffff1916145b80610496575061049582611191565b5b9050919050565b60006104a960076111fb565b905090565b6060600080546104bd90613634565b80601f01602080910402602001604051908101604052809291908181526020018280546104e990613634565b80156105365780601f1061050b57610100808354040283529160200191610536565b820191906000526020600020905b81548152906001019060200180831161051957829003601f168201915b5050505050905090565b600061054b82611209565b61058a576040517f08c379a0000000000000000000000000000000000000000000000000000000008152600401610581906132f5565b60405180910390fd5b6004600083815260200190815260200160002060009054906101000a900473ffffffffffffffffffffffffffffffffffffffff169050919050565b60006105d08261087b565b90508073ffffffffffffffffffffffffffffffffffffffff168373ffffffffffffffffffffffffffffffffffffffff161415610641576040517f08c379a000000000000000000000000000000000000000000000000000000000815260040161063890613355565b60405180910390fd5b8073ffffffffffffffffffffffffffffffffffffffff16610660611275565b73ffffffffffffffffffffffffffffffffffffffff16148061068f575061068e81610689611275565b611064565b5b6106ce576040517f08c379a00000000000000000000000000000000000000000000000000000000081526004016106c590613235565b60405180910390fd5b6106d8838361127d565b505050565b6106ee6106e8611275565b82611336565b61072d576040517f08c379a000000000000000000000000000000000000000000000000000000000815260040161072490613375565b60405180910390fd5b610738838383611414565b505050565b6060600061077161074d84611670565b60405160200161075d9190613046565b60405160208183030381529060405261181d565b90506009805490508161078491906136af565b9050600981815481106107c0577f4e487b7100000000000000000000000000000000000000000000000000000000600052603260045260246000fd5b9060005260206000200180546107d590613634565b80601f016020809104026020016040519081016040528092919081815260200182805461080190613634565b801561084e5780601f106108235761010080835404028352916020019161084e565b820191906000526020600020905b81548152906001019060200180831161083157829003601f168201915b5050505050915050919050565b61087683838360405180602001604052806000815250610d92565b505050565b6000806002600084815260200190815260200160002060009054906101000a900473ffffffffffffffffffffffffffffffffffffffff169050600073ffffffffffffffffffffffffffffffffffffffff168173ffffffffffffffffffffffffffffffffffffffff161415610924576040517f08c379a000000000000000000000000000000000000000000000000000000000815260040161091b90613275565b60405180910390fd5b80915050919050565b60008073ffffffffffffffffffffffffffffffffffffffff168273ffffffffffffffffffffffffffffffffffffffff16141561099e576040517f08c379a000000000000000000000000000000000000000000000000000000000815260040161099590613255565b60405180910390fd5b600360008373ffffffffffffffffffffffffffffffffffffffff1673ffffffffffffffffffffffffffffffffffffffff168152602001908152602001600020549050919050565b6060600180546109f490613634565b80601f0160208091040260200160405190810160405280929190818152602001828054610a2090613634565b8015610a6d5780601f10610a4257610100808354040283529160200191610a6d565b820191906000526020600020905b815481529060010190602001808311610a5057829003601f168201915b5050505050905090565b610a89610a82611275565b8383611850565b5050565b6000610a9960076111fb565b90506000610aa68261073d565b90506000610ab383610c74565b90506000610ac084610df4565b90506000838383604051602001610ad993929190612f5d565b60405160208183030381529060405290506000600882604051602001610b00929190612f8e565b60405160208183030381529060405290506000610b4583610b20846119bd565b604051602001610b31929190613001565b6040516020818303038152906040526119bd565b9050600081604051602001610b5a9190613068565b6040516020818303038152906040529050610ba96040518060400160405280601581526020017f0a2d2d2d2d2d2d2d2d2d2d2d2d2d2d2d2d2d2d2d2d00000000000000000000008152506110f8565b610bb2816110f8565b610bf06040518060400160405280601581526020017f2d2d2d2d2d2d2d2d2d2d2d2d2d2d2d2d2d2d2d2d0a00000000000000000000008152506110f8565b610bfa3389611b7b565b610c048882611b99565b610c0e6007611c0d565b610c3160405180606001604052806025815260200161380a602591398933611c23565b7f1c05098ed1ff38e6238d2b1b04b2c7977d4c94ce651bda6473f9dba8dbf01da03389604051610c629291906130f1565b60405180910390a15050505050505050565b60606000610ca8610c8484611670565b604051602001610c949190612fdf565b60405160208183030381529060405261181d565b9050600a8054905081610cbb91906136af565b9050600a8181548110610cf7577f4e487b7100000000000000000000000000000000000000000000000000000000600052603260045260246000fd5b906000526020600020018054610d0c90613634565b80601f0160208091040260200160405190810160405280929190818152602001828054610d3890613634565b8015610d855780601f10610d5a57610100808354040283529160200191610d85565b820191906000526020600020905b815481529060010190602001808311610d6857829003601f168201915b5050505050915050919050565b610da3610d9d611275565b83611336565b610de2576040517f08c379a0000000000000000000000000000000000000000000000000000000008152600401610dd990613375565b60405180910390fd5b610dee84848484611cc2565b50505050565b60606000610e28610e0484611670565b604051602001610e149190612fbd565b60405160208183030381529060405261181d565b9050600b8054905081610e3b91906136af565b9050600b8181548110610e77577f4e487b7100000000000000000000000000000000000000000000000000000000600052603260045260246000fd5b906000526020600020018054610e8c90613634565b80601f0160208091040260200160405190810160405280929190818152602001828054610eb890613634565b8015610f055780601f10610eda57610100808354040283529160200191610f05565b820191906000526020600020905b815481529060010190602001808311610ee857829003601f168201915b5050505050915050919050565b6060610f1d82611209565b610f5c576040517f08c379a0000000000000000000000000000000000000000000000000000000008152600401610f53906132d5565b60405180910390fd5b6000600660008481526020019081526020016000208054610f7c90613634565b80601f0160208091040260200160405190810160405280929190818152602001828054610fa890613634565b8015610ff55780601f10610fca57610100808354040283529160200191610ff5565b820191906000526020600020905b815481529060010190602001808311610fd857829003601f168201915b505050505090506000611006611d1e565b905060008151141561101c57819250505061105f565b600082511115611051578082604051602001611039929190612f39565b6040516020818303038152906040529250505061105f565b61105a84611d35565b925050505b919050565b6000600560008473ffffffffffffffffffffffffffffffffffffffff1673ffffffffffffffffffffffffffffffffffffffff16815260200190815260200160002060008373ffffffffffffffffffffffffffffffffffffffff1673ffffffffffffffffffffffffffffffffffffffff16815260200190815260200160002060009054906101000a900460ff16905092915050565b61118e8160405160240161110c9190613135565b6040516020818303038152906040527f41304fac000000000000000000000000000000000000000000000000000000007bffffffffffffffffffffffffffffffffffffffffffffffffffffffff19166020820180517bffffffffffffffffffffffffffffffffffffffffffffffffffffffff8381831617835250505050611ddc565b50565b60007f01ffc9a7000000000000000000000000000000000000000000000000000000007bffffffffffffffffffffffffffffffffffffffffffffffffffffffff1916827bffffffffffffffffffffffffffffffffffffffffffffffffffffffff1916149050919050565b600081600001549050919050565b60008073ffffffffffffffffffffffffffffffffffffffff166002600084815260200190815260200160002060009054906101000a900473ffffffffffffffffffffffffffffffffffffffff1673ffffffffffffffffffffffffffffffffffffffff1614159050919050565b600033905090565b816004600083815260200190815260200160002060006101000a81548173ffffffffffffffffffffffffffffffffffffffff021916908373ffffffffffffffffffffffffffffffffffffffff160217905550808273ffffffffffffffffffffffffffffffffffffffff166112f08361087b565b73ffffffffffffffffffffffffffffffffffffffff167f8c5be1e5ebec7d5bd14f71427d1e84f3dd0314c0f7b2291e5b200ac8c7c3b92560405160405180910390a45050565b600061134182611209565b611380576040517f08c379a000000000000000000000000000000000000000000000000000000000815260040161137790613215565b60405180910390fd5b600061138b8361087b565b90508073ffffffffffffffffffffffffffffffffffffffff168473ffffffffffffffffffffffffffffffffffffffff1614806113fa57508373ffffffffffffffffffffffffffffffffffffffff166113e284610540565b73ffffffffffffffffffffffffffffffffffffffff16145b8061140b575061140a8185611064565b5b91505092915050565b8273ffffffffffffffffffffffffffffffffffffffff166114348261087b565b73ffffffffffffffffffffffffffffffffffffffff161461148a576040517f08c379a000000000000000000000000000000000000000000000000000000000815260040161148190613315565b60405180910390fd5b600073ffffffffffffffffffffffffffffffffffffffff168273ffffffffffffffffffffffffffffffffffffffff1614156114fa576040517f08c379a00000000000000000000000000000000000000000000000000000000081526004016114f1906131d5565b60405180910390fd5b611505838383611e05565b61151060008261127d565b6001600360008573ffffffffffffffffffffffffffffffffffffffff1673ffffffffffffffffffffffffffffffffffffffff1681526020019081526020016000206000828254611560919061354a565b925050819055506001600360008473ffffffffffffffffffffffffffffffffffffffff1673ffffffffffffffffffffffffffffffffffffffff16815260200190815260200160002060008282546115b79190613469565b92505081905550816002600083815260200190815260200160002060006101000a81548173ffffffffffffffffffffffffffffffffffffffff021916908373ffffffffffffffffffffffffffffffffffffffff160217905550808273ffffffffffffffffffffffffffffffffffffffff168473ffffffffffffffffffffffffffffffffffffffff167fddf252ad1be2c89b69c2b068fc378daa952ba7f163c4a11628f55a4df523b3ef60405160405180910390a4505050565b606060008214156116b8576040518060400160405280600181526020017f30000000000000000000000000000000000000000000000000000000000000008152509050611818565b600082905060005b600082146116ea5780806116d390613666565b915050600a826116e391906134bf565b91506116c0565b60008167ffffffffffffffff81111561172c577f4e487b7100000000000000000000000000000000000000000000000000000000600052604160045260246000fd5b6040519080825280601f01601f19166020018201604052801561175e5781602001600182028036833780820191505090505b5090505b6000851461181157600182611777919061354a565b9150600a8561178691906136af565b60306117929190613469565b60f81b8183815181106117ce577f4e487b7100000000000000000000000000000000000000000000000000000000600052603260045260246000fd5b60200101907effffffffffffffffffffffffffffffffffffffffffffffffffffffffffffff1916908160001a905350600a8561180a91906134bf565b9450611762565b8093505050505b919050565b6000816040516020016118309190612f22565b6040516020818303038152906040528051906020012060001c9050919050565b8173ffffffffffffffffffffffffffffffffffffffff168373ffffffffffffffffffffffffffffffffffffffff1614156118bf576040517f08c379a00000000000000000000000000000000000000000000000000000000081526004016118b6906131f5565b60405180910390fd5b80600560008573ffffffffffffffffffffffffffffffffffffffff1673ffffffffffffffffffffffffffffffffffffffff16815260200190815260200160002060008473ffffffffffffffffffffffffffffffffffffffff1673ffffffffffffffffffffffffffffffffffffffff16815260200190815260200160002060006101000a81548160ff0219169083151502179055508173ffffffffffffffffffffffffffffffffffffffff168373ffffffffffffffffffffffffffffffffffffffff167f17307eab39ab6107e8899845ad3d59bd9653f200f220920489ca2b5937696c31836040516119b0919061311a565b60405180910390a3505050565b606060008251905060008114156119e65760405180602001604052806000815250915050611b76565b600060036002836119f79190613469565b611a0191906134bf565b6004611a0d91906134f0565b90506000602082611a1e9190613469565b67ffffffffffffffff811115611a5d577f4e487b7100000000000000000000000000000000000000000000000000000000600052604160045260246000fd5b6040519080825280601f01601f191660200182016040528015611a8f5781602001600182028036833780820191505090505b509050600060405180606001604052806040815260200161382f604091399050600181016020830160005b86811015611b335760038101905062ffffff818a015116603f8160121c168401518060081b905060ff603f83600c1c1686015116810190508060081b905060ff603f8360061c1686015116810190508060081b905060ff603f831686015116810190508060e01b90508084526004840193505050611aba565b506003860660018114611b4d5760028114611b5d57611b68565b613d3d60f01b6002830352611b68565b603d60f81b60018303525b508484525050819450505050505b919050565b611b95828260405180602001604052806000815250611e0a565b5050565b611ba282611209565b611be1576040517f08c379a0000000000000000000000000000000000000000000000000000000008152600401611bd890613295565b60405180910390fd5b80600660008481526020019081526020016000209080519060200190611c089291906121dd565b505050565b6001816000016000828254019250508190555050565b611cbd838383604051602401611c3b93929190613157565b6040516020818303038152906040527fe3849f79000000000000000000000000000000000000000000000000000000007bffffffffffffffffffffffffffffffffffffffffffffffffffffffff19166020820180517bffffffffffffffffffffffffffffffffffffffffffffffffffffffff8381831617835250505050611ddc565b505050565b611ccd848484611414565b611cd984848484611e65565b611d18576040517f08c379a0000000000000000000000000000000000000000000000000000000008152600401611d0f90613195565b60405180910390fd5b50505050565b606060405180602001604052806000815250905090565b6060611d4082611209565b611d7f576040517f08c379a0000000000000000000000000000000000000000000000000000000008152600401611d7690613335565b60405180910390fd5b6000611d89611d1e565b90506000815111611da95760405180602001604052806000815250611dd4565b80611db384611670565b604051602001611dc4929190612f39565b6040516020818303038152906040525b915050919050565b60008151905060006a636f6e736f6c652e6c6f679050602083016000808483855afa5050505050565b505050565b611e148383611ffc565b611e216000848484611e65565b611e60576040517f08c379a0000000000000000000000000000000000000000000000000000000008152600401611e5790613195565b60405180910390fd5b505050565b6000611e868473ffffffffffffffffffffffffffffffffffffffff166121ca565b15611fef578373ffffffffffffffffffffffffffffffffffffffff1663150b7a02611eaf611275565b8786866040518563ffffffff1660e01b8152600401611ed194939291906130a5565b602060405180830381600087803b158015611eeb57600080fd5b505af1925050508015611f1c57506040513d601f19601f82011682018060405250810190611f199190612521565b60015b611f9f573d8060008114611f4c576040519150601f19603f3d011682016040523d82523d6000602084013e611f51565b606091505b50600081511415611f97576040517f08c379a0000000000000000000000000000000000000000000000000000000008152600401611f8e90613195565b60405180910390fd5b805181602001fd5b63150b7a0260e01b7bffffffffffffffffffffffffffffffffffffffffffffffffffffffff1916817bffffffffffffffffffffffffffffffffffffffffffffffffffffffff191614915050611ff4565b600190505b949350505050565b600073ffffffffffffffffffffffffffffffffffffffff168273ffffffffffffffffffffffffffffffffffffffff16141561206c576040517f08c379a0000000000000000000000000000000000000000000000000000000008152600401612063906132b5565b60405180910390fd5b61207581611209565b156120b5576040517f08c379a00000000000000000000000000000000000000000000000000000000081526004016120ac906131b5565b60405180910390fd5b6120c160008383611e05565b6001600360008473ffffffffffffffffffffffffffffffffffffffff1673ffffffffffffffffffffffffffffffffffffffff16815260200190815260200160002060008282546121119190613469565b92505081905550816002600083815260200190815260200160002060006101000a81548173ffffffffffffffffffffffffffffffffffffffff021916908373ffffffffffffffffffffffffffffffffffffffff160217905550808273ffffffffffffffffffffffffffffffffffffffff16600073ffffffffffffffffffffffffffffffffffffffff167fddf252ad1be2c89b69c2b068fc378daa952ba7f163c4a11628f55a4df523b3ef60405160405180910390a45050565b600080823b905060008111915050919050565b8280546121e990613634565b90600052602060002090601f01602090048101928261220b5760008555612252565b82601f1061222457805160ff1916838001178555612252565b82800160010185558215612252579182015b82811115612251578251825591602001919060010190612236565b5b50905061225f9190612263565b5090565b5b8082111561227c576000816000905550600101612264565b5090565b600061229361228e846133e1565b6133b0565b9050828152602081018484840111156122ab57600080fd5b6122b68482856135f2565b509392505050565b6000813590506122cd816137ad565b92915050565b6000813590506122e2816137c4565b92915050565b6000813590506122f7816137db565b92915050565b60008151905061230c816137db565b92915050565b600082601f83011261232357600080fd5b8135612333848260208601612280565b91505092915050565b60008135905061234b816137f2565b92915050565b60006020828403121561236357600080fd5b6000612371848285016122be565b91505092915050565b6000806040838503121561238d57600080fd5b600061239b858286016122be565b92505060206123ac858286016122be565b9150509250929050565b6000806000606084860312156123cb57600080fd5b60006123d9868287016122be565b93505060206123ea868287016122be565b92505060406123fb8682870161233c565b9150509250925092565b6000806000806080858703121561241b57600080fd5b6000612429878288016122be565b945050602061243a878288016122be565b935050604061244b8782880161233c565b925050606085013567ffffffffffffffff81111561246857600080fd5b61247487828801612312565b91505092959194509250565b6000806040838503121561249357600080fd5b60006124a1858286016122be565b92505060206124b2858286016122d3565b9150509250929050565b600080604083850312156124cf57600080fd5b60006124dd858286016122be565b92505060206124ee8582860161233c565b9150509250929050565b60006020828403121561250a57600080fd5b6000612518848285016122e8565b91505092915050565b60006020828403121561253357600080fd5b6000612541848285016122fd565b91505092915050565b60006020828403121561255c57600080fd5b600061256a8482850161233c565b91505092915050565b61257c8161357e565b82525050565b61258b81613590565b82525050565b600061259c82613426565b6125a6818561343c565b93506125b6818560208601613601565b6125bf8161379c565b840191505092915050565b60006125d582613431565b6125df818561344d565b93506125ef818560208601613601565b6125f88161379c565b840191505092915050565b600061260e82613431565b612618818561345e565b9350612628818560208601613601565b80840191505092915050565b6000815461264181613634565b61264b818661345e565b945060018216600081146126665760018114612677576126aa565b60ff198316865281860193506126aa565b61268085613411565b60005b838110156126a257815481890152600182019150602081019050612683565b838801955050505b50505092915050565b60006126c060328361344d565b91507f4552433732313a207472616e7366657220746f206e6f6e20455243373231526560008301527f63656976657220696d706c656d656e74657200000000000000000000000000006020830152604082019050919050565b6000612726601c8361344d565b91507f4552433732313a20746f6b656e20616c7265616479206d696e746564000000006000830152602082019050919050565b6000612766600a8361345e565b91507f54484952445f574f5244000000000000000000000000000000000000000000006000830152600a82019050919050565b60006127a660248361344d565b91507f4552433732313a207472616e7366657220746f20746865207a65726f2061646460008301527f72657373000000000000000000000000000000000000000000000000000000006020830152604082019050919050565b600061280c60198361344d565b91507f4552433732313a20617070726f766520746f2063616c6c6572000000000000006000830152602082019050919050565b600061284c60638361345e565b91507f222c20226465736372697074696f6e223a20224120686967686c79206163636c60008301527f61696d656420636f6c6c656374696f6e206f6620737175617265732e222c202260208301527f696d616765223a2022646174613a696d6167652f7376672b786d6c3b6261736560408301527f36342c00000000000000000000000000000000000000000000000000000000006060830152606382019050919050565b60006128fe600b8361345e565b91507f5345434f4e445f574f52440000000000000000000000000000000000000000006000830152600b82019050919050565b600061293e602c8361344d565b91507f4552433732313a206f70657261746f7220717565727920666f72206e6f6e657860008301527f697374656e7420746f6b656e00000000000000000000000000000000000000006020830152604082019050919050565b60006129a4600d8361345e565b91507f3c2f746578743e3c2f7376673e000000000000000000000000000000000000006000830152600d82019050919050565b60006129e460388361344d565b91507f4552433732313a20617070726f76652063616c6c6572206973206e6f74206f7760008301527f6e6572206e6f7220617070726f76656420666f7220616c6c00000000000000006020830152604082019050919050565b6000612a4a602a8361344d565b91507f4552433732313a2062616c616e636520717565727920666f7220746865207a6560008301527f726f2061646472657373000000000000000000000000000000000000000000006020830152604082019050919050565b6000612ab060298361344d565b91507f4552433732313a206f776e657220717565727920666f72206e6f6e657869737460008301527f656e7420746f6b656e00000000000000000000000000000000000000000000006020830152604082019050919050565b6000612b16602e8361344d565b91507f45524337323155524953746f726167653a2055524920736574206f66206e6f6e60008301527f6578697374656e7420746f6b656e0000000000000000000000000000000000006020830152604082019050919050565b6000612b7c60028361345e565b91507f227d0000000000000000000000000000000000000000000000000000000000006000830152600282019050919050565b6000612bbc60208361344d565b91507f4552433732313a206d696e7420746f20746865207a65726f20616464726573736000830152602082019050919050565b6000612bfc60318361344d565b91507f45524337323155524953746f726167653a2055524920717565727920666f722060008301527f6e6f6e6578697374656e7420746f6b656e0000000000000000000000000000006020830152604082019050919050565b6000612c62602c8361344d565b91507f4552433732313a20617070726f76656420717565727920666f72206e6f6e657860008301527f697374656e7420746f6b656e00000000000000000000000000000000000000006020830152604082019050919050565b6000612cc860298361344d565b91507f4552433732313a207472616e73666572206f6620746f6b656e2074686174206960008301527f73206e6f74206f776e00000000000000000000000000000000000000000000006020830152604082019050919050565b6000612d2e602f8361344d565b91507f4552433732314d657461646174613a2055524920717565727920666f72206e6f60008301527f6e6578697374656e7420746f6b656e00000000000000000000000000000000006020830152604082019050919050565b6000612d94600a8361345e565b91507f7b226e616d65223a2022000000000000000000000000000000000000000000006000830152600a82019050919050565b6000612dd460218361344d565b91507f4552433732313a20617070726f76616c20746f2063757272656e74206f776e6560008301527f72000000000000000000000000000000000000000000000000000000000000006020830152604082019050919050565b6000612e3a600a8361345e565b91507f46495253545f574f5244000000000000000000000000000000000000000000006000830152600a82019050919050565b6000612e7a601d8361345e565b91507f646174613a6170706c69636174696f6e2f6a736f6e3b6261736536342c0000006000830152601d82019050919050565b6000612eba60318361344d565b91507f4552433732313a207472616e736665722063616c6c6572206973206e6f74206f60008301527f776e6572206e6f7220617070726f7665640000000000000000000000000000006020830152604082019050919050565b612f1c816135e8565b82525050565b6000612f2e8284612603565b915081905092915050565b6000612f458285612603565b9150612f518284612603565b91508190509392505050565b6000612f698286612603565b9150612f758285612603565b9150612f818284612603565b9150819050949350505050565b6000612f9a8285612634565b9150612fa68284612603565b9150612fb182612997565b91508190509392505050565b6000612fc882612759565b9150612fd48284612603565b915081905092915050565b6000612fea826128f1565b9150612ff68284612603565b915081905092915050565b600061300c82612d87565b91506130188285612603565b91506130238261283f565b915061302f8284612603565b915061303a82612b6f565b91508190509392505050565b600061305182612e2d565b915061305d8284612603565b915081905092915050565b600061307382612e6d565b915061307f8284612603565b915081905092915050565b600060208201905061309f6000830184612573565b92915050565b60006080820190506130ba6000830187612573565b6130c76020830186612573565b6130d46040830185612f13565b81810360608301526130e68184612591565b905095945050505050565b60006040820190506131066000830185612573565b6131136020830184612f13565b9392505050565b600060208201905061312f6000830184612582565b92915050565b6000602082019050818103600083015261314f81846125ca565b905092915050565b6000606082019050818103600083015261317181866125ca565b90506131806020830185612f13565b61318d6040830184612573565b949350505050565b600060208201905081810360008301526131ae816126b3565b9050919050565b600060208201905081810360008301526131ce81612719565b9050919050565b600060208201905081810360008301526131ee81612799565b9050919050565b6000602082019050818103600083015261320e816127ff565b9050919050565b6000602082019050818103600083015261322e81612931565b9050919050565b6000602082019050818103600083015261324e816129d7565b9050919050565b6000602082019050818103600083015261326e81612a3d565b9050919050565b6000602082019050818103600083015261328e81612aa3565b9050919050565b600060208201905081810360008301526132ae81612b09565b9050919050565b600060208201905081810360008301526132ce81612baf565b9050919050565b600060208201905081810360008301526132ee81612bef565b9050919050565b6000602082019050818103600083015261330e81612c55565b9050919050565b6000602082019050818103600083015261332e81612cbb565b9050919050565b6000602082019050818103600083015261334e81612d21565b9050919050565b6000602082019050818103600083015261336e81612dc7565b9050919050565b6000602082019050818103600083015261338e81612ead565b9050919050565b60006020820190506133aa6000830184612f13565b92915050565b6000604051905081810181811067ffffffffffffffff821117156133d7576133d661376d565b5b8060405250919050565b600067ffffffffffffffff8211156133fc576133fb61376d565b5b601f19601f8301169050602081019050919050565b60008190508160005260206000209050919050565b600081519050919050565b600081519050919050565b600082825260208201905092915050565b600082825260208201905092915050565b600081905092915050565b6000613474826135e8565b915061347f836135e8565b9250827fffffffffffffffffffffffffffffffffffffffffffffffffffffffffffffffff038211156134b4576134b36136e0565b5b828201905092915050565b60006134ca826135e8565b91506134d5836135e8565b9250826134e5576134e461370f565b5b828204905092915050565b60006134fb826135e8565b9150613506836135e8565b9250817fffffffffffffffffffffffffffffffffffffffffffffffffffffffffffffffff048311821515161561353f5761353e6136e0565b5b828202905092915050565b6000613555826135e8565b9150613560836135e8565b925082821015613573576135726136e0565b5b828203905092915050565b6000613589826135c8565b9050919050565b60008115159050919050565b60007fffffffff0000000000000000000000000000000000000000000000000000000082169050919050565b600073ffffffffffffffffffffffffffffffffffffffff82169050919050565b6000819050919050565b82818337600083830152505050565b60005b8381101561361f578082015181840152602081019050613604565b8381111561362e576000848401525b50505050565b6000600282049050600182168061364c57607f821691505b602082108114156136605761365f61373e565b5b50919050565b6000613671826135e8565b91507fffffffffffffffffffffffffffffffffffffffffffffffffffffffffffffffff8214156136a4576136a36136e0565b5b600182019050919050565b60006136ba826135e8565b91506136c5836135e8565b9250826136d5576136d461370f565b5b828206905092915050565b7f4e487b7100000000000000000000000000000000000000000000000000000000600052601160045260246000fd5b7f4e487b7100000000000000000000000000000000000000000000000000000000600052601260045260246000fd5b7f4e487b7100000000000000000000000000000000000000000000000000000000600052602260045260246000fd5b7f4e487b7100000000000000000000000000000000000000000000000000000000600052604160045260246000fd5b6000601f19601f8301169050919050565b6137b68161357e565b81146137c157600080fd5b50565b6137cd81613590565b81146137d857600080fd5b50565b6137e48161359c565b81146137ef57600080fd5b50565b6137fb816135e8565b811461380657600080fd5b5056fe416e204e465420772f20494420257320686173206265656e206d696e74656420746f2025734142434445464748494a4b4c4d4e4f505152535455565758595a6162636465666768696a6b6c6d6e6f707172737475767778797a303132333435363738392b2fa26469706673582212206859ce9ca293574a568ca15bce988a9e75127c41c02865c8af6ec3f503d1629064736f6c634300080000333c73766720786d6c6e733d27687474703a2f2f7777772e77332e6f72672f323030302f73766727207072657365727665417370656374526174696f3d27784d696e594d696e206d656574272076696577426f783d273020302033353020333530273e3c7374796c653e2e62617365207b2066696c6c3a2077686974653b20666f6e742d66616d696c793a2073657269663b20666f6e742d73697a653a20323470783b207d3c2f7374796c653e3c726563742077696474683d273130302527206865696768743d2731303025272066696c6c3d27626c61636b27202f3e3c7465787420783d273530252720793d273530252720636c6173733d27626173652720646f6d696e616e742d626173656c696e653d276d6964646c652720746578742d616e63686f723d276d6964646c65273e",
  "linkReferences": {},
  "deployedLinkReferences": {}
}