{
  "_format": "hh-sol-artifact-1",
  "contractName": "MyNFT",
  "sourceName": "contracts/MyNFT.sol",
  "abi": [
    {
      "inputs": [],
      "stateMutability": "nonpayable",
      "type": "constructor"
    },
    {
      "anonymous": false,
      "inputs": [
        {
          "indexed": true,
          "internalType": "address",
          "name": "owner",
          "type": "address"
        },
        {
          "indexed": true,
          "internalType": "address",
          "name": "approved",
          "type": "address"
        },
        {
          "indexed": true,
          "internalType": "uint256",
          "name": "tokenId",
          "type": "uint256"
        }
      ],
      "name": "Approval",
      "type": "event"
    },
    {
      "anonymous": false,
      "inputs": [
        {
          "indexed": true,
          "internalType": "address",
          "name": "owner",
          "type": "address"
        },
        {
          "indexed": true,
          "internalType": "address",
          "name": "operator",
          "type": "address"
        },
        {
          "indexed": false,
          "internalType": "bool",
          "name": "approved",
          "type": "bool"
        }
      ],
      "name": "ApprovalForAll",
      "type": "event"
    },
    {
      "anonymous": false,
      "inputs": [
        {
          "indexed": true,
          "internalType": "address",
          "name": "from",
          "type": "address"
        },
        {
          "indexed": true,
          "internalType": "address",
          "name": "to",
          "type": "address"
        },
        {
          "indexed": true,
          "internalType": "uint256",
          "name": "tokenId",
          "type": "uint256"
        }
      ],
      "name": "Transfer",
      "type": "event"
    },
    {
      "inputs": [
        {
          "internalType": "address",
          "name": "to",
          "type": "address"
        },
        {
          "internalType": "uint256",
          "name": "tokenId",
          "type": "uint256"
        }
      ],
      "name": "approve",
      "outputs": [],
      "stateMutability": "nonpayable",
      "type": "function"
    },
    {
      "inputs": [
        {
          "internalType": "address",
          "name": "owner",
          "type": "address"
        }
      ],
      "name": "balanceOf",
      "outputs": [
        {
          "internalType": "uint256",
          "name": "",
          "type": "uint256"
        }
      ],
      "stateMutability": "view",
      "type": "function"
    },
    {
      "inputs": [
        {
          "internalType": "uint256",
          "name": "tokenId",
          "type": "uint256"
        }
      ],
      "name": "getApproved",
      "outputs": [
        {
          "internalType": "address",
          "name": "",
          "type": "address"
        }
      ],
      "stateMutability": "view",
      "type": "function"
    },
    {
      "inputs": [
        {
          "internalType": "address",
          "name": "owner",
          "type": "address"
        },
        {
          "internalType": "address",
          "name": "operator",
          "type": "address"
        }
      ],
      "name": "isApprovedForAll",
      "outputs": [
        {
          "internalType": "bool",
          "name": "",
          "type": "bool"
        }
      ],
      "stateMutability": "view",
      "type": "function"
    },
    {
      "inputs": [],
      "name": "makeNFT",
      "outputs": [],
      "stateMutability": "nonpayable",
      "type": "function"
    },
    {
      "inputs": [],
      "name": "name",
      "outputs": [
        {
          "internalType": "string",
          "name": "",
          "type": "string"
        }
      ],
      "stateMutability": "view",
      "type": "function"
    },
    {
      "inputs": [
        {
          "internalType": "uint256",
          "name": "tokenId",
          "type": "uint256"
        }
      ],
      "name": "ownerOf",
      "outputs": [
        {
          "internalType": "address",
          "name": "",
          "type": "address"
        }
      ],
      "stateMutability": "view",
      "type": "function"
    },
    {
      "inputs": [
        {
          "internalType": "uint256",
          "name": "tokenId",
          "type": "uint256"
        }
      ],
      "name": "pickRandomFirstWord",
      "outputs": [
        {
          "internalType": "string",
          "name": "",
          "type": "string"
        }
      ],
      "stateMutability": "view",
      "type": "function"
    },
    {
      "inputs": [
        {
          "internalType": "uint256",
          "name": "tokenId",
          "type": "uint256"
        }
      ],
      "name": "pickRandomSecondWord",
      "outputs": [
        {
          "internalType": "string",
          "name": "",
          "type": "string"
        }
      ],
      "stateMutability": "view",
      "type": "function"
    },
    {
      "inputs": [
        {
          "internalType": "uint256",
          "name": "tokenId",
          "type": "uint256"
        }
      ],
      "name": "pickRandomThirdWord",
      "outputs": [
        {
          "internalType": "string",
          "name": "",
          "type": "string"
        }
      ],
      "stateMutability": "view",
      "type": "function"
    },
    {
      "inputs": [
        {
          "internalType": "address",
          "name": "from",
          "type": "address"
        },
        {
          "internalType": "address",
          "name": "to",
          "type": "address"
        },
        {
          "internalType": "uint256",
          "name": "tokenId",
          "type": "uint256"
        }
      ],
      "name": "safeTransferFrom",
      "outputs": [],
      "stateMutability": "nonpayable",
      "type": "function"
    },
    {
      "inputs": [
        {
          "internalType": "address",
          "name": "from",
          "type": "address"
        },
        {
          "internalType": "address",
          "name": "to",
          "type": "address"
        },
        {
          "internalType": "uint256",
          "name": "tokenId",
          "type": "uint256"
        },
        {
          "internalType": "bytes",
          "name": "_data",
          "type": "bytes"
        }
      ],
      "name": "safeTransferFrom",
      "outputs": [],
      "stateMutability": "nonpayable",
      "type": "function"
    },
    {
      "inputs": [
        {
          "internalType": "address",
          "name": "operator",
          "type": "address"
        },
        {
          "internalType": "bool",
          "name": "approved",
          "type": "bool"
        }
      ],
      "name": "setApprovalForAll",
      "outputs": [],
      "stateMutability": "nonpayable",
      "type": "function"
    },
    {
      "inputs": [
        {
          "internalType": "bytes4",
          "name": "interfaceId",
          "type": "bytes4"
        }
      ],
      "name": "supportsInterface",
      "outputs": [
        {
          "internalType": "bool",
          "name": "",
          "type": "bool"
        }
      ],
      "stateMutability": "view",
      "type": "function"
    },
    {
      "inputs": [],
      "name": "symbol",
      "outputs": [
        {
          "internalType": "string",
          "name": "",
          "type": "string"
        }
      ],
      "stateMutability": "view",
      "type": "function"
    },
    {
      "inputs": [
        {
          "internalType": "uint256",
          "name": "tokenId",
          "type": "uint256"
        }
      ],
      "name": "tokenURI",
      "outputs": [
        {
          "internalType": "string",
          "name": "",
          "type": "string"
        }
      ],
      "stateMutability": "view",
      "type": "function"
    },
    {
      "inputs": [
        {
          "internalType": "address",
          "name": "from",
          "type": "address"
        },
        {
          "internalType": "address",
          "name": "to",
          "type": "address"
        },
        {
          "internalType": "uint256",
          "name": "tokenId",
          "type": "uint256"
        }
      ],
      "name": "transferFrom",
      "outputs": [],
      "stateMutability": "nonpayable",
      "type": "function"
    }
  ],
  "bytecode": "0x608060405260405180610160016040528061012f81526020016200420d61012f913960089080519060200190620000389291906200067e565b506040518060c001604052806040518060400160405280600881526020017f4d656e6163696e6700000000000000000000000000000000000000000000000081525081526020016040518060400160405280600781526020017f56696f6c656e740000000000000000000000000000000000000000000000000081525081526020016040518060400160405280600681526020017f437265657079000000000000000000000000000000000000000000000000000081525081526020016040518060400160405280600581526020017f517569636b00000000000000000000000000000000000000000000000000000081525081526020016040518060400160405280600681526020017f446561646c79000000000000000000000000000000000000000000000000000081525081526020016040518060400160405280600881526020017f436861726d696e670000000000000000000000000000000000000000000000008152508152506009906006620001b69291906200070f565b506040518060c001604052806040518060400160405280600681526020017f537069646572000000000000000000000000000000000000000000000000000081525081526020016040518060400160405280600681526020017f4d6f6e6b6579000000000000000000000000000000000000000000000000000081525081526020016040518060400160405280600881526020017f537175697272656c00000000000000000000000000000000000000000000000081525081526020016040518060400160405280600781526020017f50656e6775696e0000000000000000000000000000000000000000000000000081525081526020016040518060400160405280600581526020017f486970706f00000000000000000000000000000000000000000000000000000081525081526020016040518060400160405280600481526020017f4c696f6e00000000000000000000000000000000000000000000000000000000815250815250600a906006620003349291906200070f565b506040518060c001604052806040518060400160405280600581526020017f436c6f776e00000000000000000000000000000000000000000000000000000081525081526020016040518060400160405280600681526020017f526170706572000000000000000000000000000000000000000000000000000081525081526020016040518060400160405280600781526020017f4a616e69746f720000000000000000000000000000000000000000000000000081525081526020016040518060400160405280600781526020017f546561636865720000000000000000000000000000000000000000000000000081525081526020016040518060400160405280600481526020017f436865660000000000000000000000000000000000000000000000000000000081525081526020016040518060400160405280600681526020017f44616e6365720000000000000000000000000000000000000000000000000000815250815250600b906006620004b29291906200070f565b50348015620004c057600080fd5b506040518060400160405280600981526020017f5371756172654e465400000000000000000000000000000000000000000000008152506040518060400160405280600681526020017f53515541524500000000000000000000000000000000000000000000000000008152508160009080519060200190620005459291906200067e565b5080600190805190602001906200055e9291906200067e565b505050620005ac6040518060400160405280601881526020017f54686973206973206d79204e465420636f6e7472616374210000000000000000815250620005b260201b620010a81760201c565b62000930565b6200065281604051602401620005c9919062000844565b6040516020818303038152906040527f41304fac000000000000000000000000000000000000000000000000000000007bffffffffffffffffffffffffffffffffffffffffffffffffffffffff19166020820180517bffffffffffffffffffffffffffffffffffffffffffffffffffffffff83818316178352505050506200065560201b60201c565b50565b60008151905060006a636f6e736f6c652e6c6f679050602083016000808483855afa5050505050565b8280546200068c90620008ba565b90600052602060002090601f016020900481019282620006b05760008555620006fc565b82601f10620006cb57805160ff1916838001178555620006fc565b82800160010185558215620006fc579182015b82811115620006fb578251825591602001919060010190620006de565b5b5090506200070b919062000776565b5090565b82805482825590600052602060002090810192821562000763579160200282015b8281111562000762578251829080519060200190620007519291906200067e565b509160200191906001019062000730565b5b50905062000772919062000795565b5090565b5b808211156200079157600081600090555060010162000777565b5090565b5b80821115620007b95760008181620007af9190620007bd565b5060010162000796565b5090565b508054620007cb90620008ba565b6000825580601f10620007df575062000800565b601f016020900490600052602060002090810190620007ff919062000776565b5b50565b6000620008108262000868565b6200081c818562000873565b93506200082e81856020860162000884565b62000839816200091f565b840191505092915050565b6000602082019050818103600083015262000860818462000803565b905092915050565b600081519050919050565b600082825260208201905092915050565b60005b83811015620008a457808201518184015260208101905062000887565b83811115620008b4576000848401525b50505050565b60006002820490506001821680620008d357607f821691505b60208210811415620008ea57620008e9620008f0565b5b50919050565b7f4e487b7100000000000000000000000000000000000000000000000000000000600052602260045260246000fd5b6000601f19601f8301169050919050565b6138cd80620009406000396000f3fe608060405234801561001057600080fd5b506004361061010b5760003560e01c806370a08231116100a2578063b187301f11610071578063b187301f146102b6578063b88d4fde146102e6578063c575757a14610302578063c87b56dd14610332578063e985e9c5146103625761010b565b806370a082311461024257806395d89b4114610272578063a22cb46514610290578063b036b4bd146102ac5761010b565b806323b872dd116100de57806323b872dd146101aa5780632de38d68146101c657806342842e0e146101f65780636352211e146102125761010b565b806301ffc9a71461011057806306fdde0314610140578063081812fc1461015e578063095ea7b31461018e575b600080fd5b61012a600480360381019061012591906124a8565b610392565b6040516101379190613143565b60405180910390f35b610148610474565b604051610155919061315e565b60405180910390f35b610178600480360381019061017391906124fa565b610506565b60405161018591906130dc565b60405180910390f35b6101a860048036038101906101a3919061246c565b61058b565b005b6101c460048036038101906101bf9190612366565b6106a3565b005b6101e060048036038101906101db91906124fa565b610703565b6040516101ed919061315e565b60405180910390f35b610210600480360381019061020b9190612366565b610821565b005b61022c600480360381019061022791906124fa565b610841565b60405161023991906130dc565b60405180910390f35b61025c60048036038101906102579190612301565b6108f3565b60405161026991906133be565b60405180910390f35b61027a6109ab565b604051610287919061315e565b60405180910390f35b6102aa60048036038101906102a59190612430565b610a3d565b005b6102b4610a53565b005b6102d060048036038101906102cb91906124fa565b610c24565b6040516102dd919061315e565b60405180910390f35b61030060048036038101906102fb91906123b5565b610d42565b005b61031c600480360381019061031791906124fa565b610da4565b604051610329919061315e565b60405180910390f35b61034c600480360381019061034791906124fa565b610ec2565b604051610359919061315e565b60405180910390f35b61037c6004803603810190610377919061232a565b611014565b6040516103899190613143565b60405180910390f35b60007f80ac58cd000000000000000000000000000000000000000000000000000000007bffffffffffffffffffffffffffffffffffffffffffffffffffffffff1916827bffffffffffffffffffffffffffffffffffffffffffffffffffffffff1916148061045d57507f5b5e139f000000000000000000000000000000000000000000000000000000007bffffffffffffffffffffffffffffffffffffffffffffffffffffffff1916827bffffffffffffffffffffffffffffffffffffffffffffffffffffffff1916145b8061046d575061046c82611141565b5b9050919050565b6060600080546104839061365d565b80601f01602080910402602001604051908101604052809291908181526020018280546104af9061365d565b80156104fc5780601f106104d1576101008083540402835291602001916104fc565b820191906000526020600020905b8154815290600101906020018083116104df57829003601f168201915b5050505050905090565b6000610511826111ab565b610550576040517f08c379a00000000000000000000000000000000000000000000000000000000081526004016105479061331e565b60405180910390fd5b6004600083815260200190815260200160002060009054906101000a900473ffffffffffffffffffffffffffffffffffffffff169050919050565b600061059682610841565b90508073ffffffffffffffffffffffffffffffffffffffff168373ffffffffffffffffffffffffffffffffffffffff161415610607576040517f08c379a00000000000000000000000000000000000000000000000000000000081526004016105fe9061337e565b60405180910390fd5b8073ffffffffffffffffffffffffffffffffffffffff16610626611217565b73ffffffffffffffffffffffffffffffffffffffff16148061065557506106548161064f611217565b611014565b5b610694576040517f08c379a000000000000000000000000000000000000000000000000000000000815260040161068b9061325e565b60405180910390fd5b61069e838361121f565b505050565b6106b46106ae611217565b826112d8565b6106f3576040517f08c379a00000000000000000000000000000000000000000000000000000000081526004016106ea9061339e565b60405180910390fd5b6106fe8383836113b6565b505050565b6060600061073761071384611612565b6040516020016107239190613098565b6040516020818303038152906040526117bf565b90506009805490508161074a91906136d8565b905060098181548110610786577f4e487b7100000000000000000000000000000000000000000000000000000000600052603260045260246000fd5b90600052602060002001805461079b9061365d565b80601f01602080910402602001604051908101604052809291908181526020018280546107c79061365d565b80156108145780601f106107e957610100808354040283529160200191610814565b820191906000526020600020905b8154815290600101906020018083116107f757829003601f168201915b5050505050915050919050565b61083c83838360405180602001604052806000815250610d42565b505050565b6000806002600084815260200190815260200160002060009054906101000a900473ffffffffffffffffffffffffffffffffffffffff169050600073ffffffffffffffffffffffffffffffffffffffff168173ffffffffffffffffffffffffffffffffffffffff1614156108ea576040517f08c379a00000000000000000000000000000000000000000000000000000000081526004016108e19061329e565b60405180910390fd5b80915050919050565b60008073ffffffffffffffffffffffffffffffffffffffff168273ffffffffffffffffffffffffffffffffffffffff161415610964576040517f08c379a000000000000000000000000000000000000000000000000000000000815260040161095b9061327e565b60405180910390fd5b600360008373ffffffffffffffffffffffffffffffffffffffff1673ffffffffffffffffffffffffffffffffffffffff168152602001908152602001600020549050919050565b6060600180546109ba9061365d565b80601f01602080910402602001604051908101604052809291908181526020018280546109e69061365d565b8015610a335780601f10610a0857610100808354040283529160200191610a33565b820191906000526020600020905b815481529060010190602001808311610a1657829003601f168201915b5050505050905090565b610a4f610a48611217565b83836117f2565b5050565b6000610a5f600761195f565b90506000610a6c82610703565b90506000610a7983610c24565b90506000610a8684610da4565b90506000838383604051602001610a9f93929190612f73565b604051602081830303815290604052905060006008858585604051602001610aca9493929190612fa4565b60405160208183030381529060405290506000610b0f83610aea8461196d565b604051602001610afb929190613053565b60405160208183030381529060405261196d565b9050600081604051602001610b2491906130ba565b6040516020818303038152906040529050610b736040518060400160405280601581526020017f0a2d2d2d2d2d2d2d2d2d2d2d2d2d2d2d2d2d2d2d2d00000000000000000000008152506110a8565b610b9b81604051602001610b879190612fed565b6040516020818303038152906040526110a8565b610bd96040518060400160405280601581526020017f2d2d2d2d2d2d2d2d2d2d2d2d2d2d2d2d2d2d2d2d0a00000000000000000000008152506110a8565b610be33389611b2b565b610bed8882611b49565b610bf76007611bbd565b610c1a604051806060016040528060258152602001613833602591398933611bd3565b5050505050505050565b60606000610c58610c3484611612565b604051602001610c449190613031565b6040516020818303038152906040526117bf565b9050600a8054905081610c6b91906136d8565b9050600a8181548110610ca7577f4e487b7100000000000000000000000000000000000000000000000000000000600052603260045260246000fd5b906000526020600020018054610cbc9061365d565b80601f0160208091040260200160405190810160405280929190818152602001828054610ce89061365d565b8015610d355780601f10610d0a57610100808354040283529160200191610d35565b820191906000526020600020905b815481529060010190602001808311610d1857829003601f168201915b5050505050915050919050565b610d53610d4d611217565b836112d8565b610d92576040517f08c379a0000000000000000000000000000000000000000000000000000000008152600401610d899061339e565b60405180910390fd5b610d9e84848484611c72565b50505050565b60606000610dd8610db484611612565b604051602001610dc4919061300f565b6040516020818303038152906040526117bf565b9050600b8054905081610deb91906136d8565b9050600b8181548110610e27577f4e487b7100000000000000000000000000000000000000000000000000000000600052603260045260246000fd5b906000526020600020018054610e3c9061365d565b80601f0160208091040260200160405190810160405280929190818152602001828054610e689061365d565b8015610eb55780601f10610e8a57610100808354040283529160200191610eb5565b820191906000526020600020905b815481529060010190602001808311610e9857829003601f168201915b5050505050915050919050565b6060610ecd826111ab565b610f0c576040517f08c379a0000000000000000000000000000000000000000000000000000000008152600401610f03906132fe565b60405180910390fd5b6000600660008481526020019081526020016000208054610f2c9061365d565b80601f0160208091040260200160405190810160405280929190818152602001828054610f589061365d565b8015610fa55780601f10610f7a57610100808354040283529160200191610fa5565b820191906000526020600020905b815481529060010190602001808311610f8857829003601f168201915b505050505090506000610fb6611cce565b9050600081511415610fcc57819250505061100f565b600082511115611001578082604051602001610fe9929190612f4f565b6040516020818303038152906040529250505061100f565b61100a84611ce5565b925050505b919050565b6000600560008473ffffffffffffffffffffffffffffffffffffffff1673ffffffffffffffffffffffffffffffffffffffff16815260200190815260200160002060008373ffffffffffffffffffffffffffffffffffffffff1673ffffffffffffffffffffffffffffffffffffffff16815260200190815260200160002060009054906101000a900460ff16905092915050565b61113e816040516024016110bc919061315e565b6040516020818303038152906040527f41304fac000000000000000000000000000000000000000000000000000000007bffffffffffffffffffffffffffffffffffffffffffffffffffffffff19166020820180517bffffffffffffffffffffffffffffffffffffffffffffffffffffffff8381831617835250505050611d8c565b50565b60007f01ffc9a7000000000000000000000000000000000000000000000000000000007bffffffffffffffffffffffffffffffffffffffffffffffffffffffff1916827bffffffffffffffffffffffffffffffffffffffffffffffffffffffff1916149050919050565b60008073ffffffffffffffffffffffffffffffffffffffff166002600084815260200190815260200160002060009054906101000a900473ffffffffffffffffffffffffffffffffffffffff1673ffffffffffffffffffffffffffffffffffffffff1614159050919050565b600033905090565b816004600083815260200190815260200160002060006101000a81548173ffffffffffffffffffffffffffffffffffffffff021916908373ffffffffffffffffffffffffffffffffffffffff160217905550808273ffffffffffffffffffffffffffffffffffffffff1661129283610841565b73ffffffffffffffffffffffffffffffffffffffff167f8c5be1e5ebec7d5bd14f71427d1e84f3dd0314c0f7b2291e5b200ac8c7c3b92560405160405180910390a45050565b60006112e3826111ab565b611322576040517f08c379a00000000000000000000000000000000000000000000000000000000081526004016113199061323e565b60405180910390fd5b600061132d83610841565b90508073ffffffffffffffffffffffffffffffffffffffff168473ffffffffffffffffffffffffffffffffffffffff16148061139c57508373ffffffffffffffffffffffffffffffffffffffff1661138484610506565b73ffffffffffffffffffffffffffffffffffffffff16145b806113ad57506113ac8185611014565b5b91505092915050565b8273ffffffffffffffffffffffffffffffffffffffff166113d682610841565b73ffffffffffffffffffffffffffffffffffffffff161461142c576040517f08c379a00000000000000000000000000000000000000000000000000000000081526004016114239061333e565b60405180910390fd5b600073ffffffffffffffffffffffffffffffffffffffff168273ffffffffffffffffffffffffffffffffffffffff16141561149c576040517f08c379a0000000000000000000000000000000000000000000000000000000008152600401611493906131fe565b60405180910390fd5b6114a7838383611db5565b6114b260008261121f565b6001600360008573ffffffffffffffffffffffffffffffffffffffff1673ffffffffffffffffffffffffffffffffffffffff16815260200190815260200160002060008282546115029190613573565b925050819055506001600360008473ffffffffffffffffffffffffffffffffffffffff1673ffffffffffffffffffffffffffffffffffffffff16815260200190815260200160002060008282546115599190613492565b92505081905550816002600083815260200190815260200160002060006101000a81548173ffffffffffffffffffffffffffffffffffffffff021916908373ffffffffffffffffffffffffffffffffffffffff160217905550808273ffffffffffffffffffffffffffffffffffffffff168473ffffffffffffffffffffffffffffffffffffffff167fddf252ad1be2c89b69c2b068fc378daa952ba7f163c4a11628f55a4df523b3ef60405160405180910390a4505050565b6060600082141561165a576040518060400160405280600181526020017f300000000000000000000000000000000000000000000000000000000000000081525090506117ba565b600082905060005b6000821461168c5780806116759061368f565b915050600a8261168591906134e8565b9150611662565b60008167ffffffffffffffff8111156116ce577f4e487b7100000000000000000000000000000000000000000000000000000000600052604160045260246000fd5b6040519080825280601f01601f1916602001820160405280156117005781602001600182028036833780820191505090505b5090505b600085146117b3576001826117199190613573565b9150600a8561172891906136d8565b60306117349190613492565b60f81b818381518110611770577f4e487b7100000000000000000000000000000000000000000000000000000000600052603260045260246000fd5b60200101907effffffffffffffffffffffffffffffffffffffffffffffffffffffffffffff1916908160001a905350600a856117ac91906134e8565b9450611704565b8093505050505b919050565b6000816040516020016117d29190612f38565b6040516020818303038152906040528051906020012060001c9050919050565b8173ffffffffffffffffffffffffffffffffffffffff168373ffffffffffffffffffffffffffffffffffffffff161415611861576040517f08c379a00000000000000000000000000000000000000000000000000000000081526004016118589061321e565b60405180910390fd5b80600560008573ffffffffffffffffffffffffffffffffffffffff1673ffffffffffffffffffffffffffffffffffffffff16815260200190815260200160002060008473ffffffffffffffffffffffffffffffffffffffff1673ffffffffffffffffffffffffffffffffffffffff16815260200190815260200160002060006101000a81548160ff0219169083151502179055508173ffffffffffffffffffffffffffffffffffffffff168373ffffffffffffffffffffffffffffffffffffffff167f17307eab39ab6107e8899845ad3d59bd9653f200f220920489ca2b5937696c31836040516119529190613143565b60405180910390a3505050565b600081600001549050919050565b606060008251905060008114156119965760405180602001604052806000815250915050611b26565b600060036002836119a79190613492565b6119b191906134e8565b60046119bd9190613519565b905060006020826119ce9190613492565b67ffffffffffffffff811115611a0d577f4e487b7100000000000000000000000000000000000000000000000000000000600052604160045260246000fd5b6040519080825280601f01601f191660200182016040528015611a3f5781602001600182028036833780820191505090505b5090506000604051806060016040528060408152602001613858604091399050600181016020830160005b86811015611ae35760038101905062ffffff818a015116603f8160121c168401518060081b905060ff603f83600c1c1686015116810190508060081b905060ff603f8360061c1686015116810190508060081b905060ff603f831686015116810190508060e01b90508084526004840193505050611a6a565b506003860660018114611afd5760028114611b0d57611b18565b613d3d60f01b6002830352611b18565b603d60f81b60018303525b508484525050819450505050505b919050565b611b45828260405180602001604052806000815250611dba565b5050565b611b52826111ab565b611b91576040517f08c379a0000000000000000000000000000000000000000000000000000000008152600401611b88906132be565b60405180910390fd5b80600660008481526020019081526020016000209080519060200190611bb892919061218d565b505050565b6001816000016000828254019250508190555050565b611c6d838383604051602401611beb93929190613180565b6040516020818303038152906040527fe3849f79000000000000000000000000000000000000000000000000000000007bffffffffffffffffffffffffffffffffffffffffffffffffffffffff19166020820180517bffffffffffffffffffffffffffffffffffffffffffffffffffffffff8381831617835250505050611d8c565b505050565b611c7d8484846113b6565b611c8984848484611e15565b611cc8576040517f08c379a0000000000000000000000000000000000000000000000000000000008152600401611cbf906131be565b60405180910390fd5b50505050565b606060405180602001604052806000815250905090565b6060611cf0826111ab565b611d2f576040517f08c379a0000000000000000000000000000000000000000000000000000000008152600401611d269061335e565b60405180910390fd5b6000611d39611cce565b90506000815111611d595760405180602001604052806000815250611d84565b80611d6384611612565b604051602001611d74929190612f4f565b6040516020818303038152906040525b915050919050565b60008151905060006a636f6e736f6c652e6c6f679050602083016000808483855afa5050505050565b505050565b611dc48383611fac565b611dd16000848484611e15565b611e10576040517f08c379a0000000000000000000000000000000000000000000000000000000008152600401611e07906131be565b60405180910390fd5b505050565b6000611e368473ffffffffffffffffffffffffffffffffffffffff1661217a565b15611f9f578373ffffffffffffffffffffffffffffffffffffffff1663150b7a02611e5f611217565b8786866040518563ffffffff1660e01b8152600401611e8194939291906130f7565b602060405180830381600087803b158015611e9b57600080fd5b505af1925050508015611ecc57506040513d601f19601f82011682018060405250810190611ec991906124d1565b60015b611f4f573d8060008114611efc576040519150601f19603f3d011682016040523d82523d6000602084013e611f01565b606091505b50600081511415611f47576040517f08c379a0000000000000000000000000000000000000000000000000000000008152600401611f3e906131be565b60405180910390fd5b805181602001fd5b63150b7a0260e01b7bffffffffffffffffffffffffffffffffffffffffffffffffffffffff1916817bffffffffffffffffffffffffffffffffffffffffffffffffffffffff191614915050611fa4565b600190505b949350505050565b600073ffffffffffffffffffffffffffffffffffffffff168273ffffffffffffffffffffffffffffffffffffffff16141561201c576040517f08c379a0000000000000000000000000000000000000000000000000000000008152600401612013906132de565b60405180910390fd5b612025816111ab565b15612065576040517f08c379a000000000000000000000000000000000000000000000000000000000815260040161205c906131de565b60405180910390fd5b61207160008383611db5565b6001600360008473ffffffffffffffffffffffffffffffffffffffff1673ffffffffffffffffffffffffffffffffffffffff16815260200190815260200160002060008282546120c19190613492565b92505081905550816002600083815260200190815260200160002060006101000a81548173ffffffffffffffffffffffffffffffffffffffff021916908373ffffffffffffffffffffffffffffffffffffffff160217905550808273ffffffffffffffffffffffffffffffffffffffff16600073ffffffffffffffffffffffffffffffffffffffff167fddf252ad1be2c89b69c2b068fc378daa952ba7f163c4a11628f55a4df523b3ef60405160405180910390a45050565b600080823b905060008111915050919050565b8280546121999061365d565b90600052602060002090601f0160209004810192826121bb5760008555612202565b82601f106121d457805160ff1916838001178555612202565b82800160010185558215612202579182015b828111156122015782518255916020019190600101906121e6565b5b50905061220f9190612213565b5090565b5b8082111561222c576000816000905550600101612214565b5090565b600061224361223e8461340a565b6133d9565b90508281526020810184848401111561225b57600080fd5b61226684828561361b565b509392505050565b60008135905061227d816137d6565b92915050565b600081359050612292816137ed565b92915050565b6000813590506122a781613804565b92915050565b6000815190506122bc81613804565b92915050565b600082601f8301126122d357600080fd5b81356122e3848260208601612230565b91505092915050565b6000813590506122fb8161381b565b92915050565b60006020828403121561231357600080fd5b60006123218482850161226e565b91505092915050565b6000806040838503121561233d57600080fd5b600061234b8582860161226e565b925050602061235c8582860161226e565b9150509250929050565b60008060006060848603121561237b57600080fd5b60006123898682870161226e565b935050602061239a8682870161226e565b92505060406123ab868287016122ec565b9150509250925092565b600080600080608085870312156123cb57600080fd5b60006123d98782880161226e565b94505060206123ea8782880161226e565b93505060406123fb878288016122ec565b925050606085013567ffffffffffffffff81111561241857600080fd5b612424878288016122c2565b91505092959194509250565b6000806040838503121561244357600080fd5b60006124518582860161226e565b925050602061246285828601612283565b9150509250929050565b6000806040838503121561247f57600080fd5b600061248d8582860161226e565b925050602061249e858286016122ec565b9150509250929050565b6000602082840312156124ba57600080fd5b60006124c884828501612298565b91505092915050565b6000602082840312156124e357600080fd5b60006124f1848285016122ad565b91505092915050565b60006020828403121561250c57600080fd5b600061251a848285016122ec565b91505092915050565b61252c816135a7565b82525050565b61253b816135b9565b82525050565b600061254c8261344f565b6125568185613465565b935061256681856020860161362a565b61256f816137c5565b840191505092915050565b60006125858261345a565b61258f8185613476565b935061259f81856020860161362a565b6125a8816137c5565b840191505092915050565b60006125be8261345a565b6125c88185613487565b93506125d881856020860161362a565b80840191505092915050565b600081546125f18161365d565b6125fb8186613487565b9450600182166000811461261657600181146126275761265a565b60ff1983168652818601935061265a565b6126308561343a565b60005b8381101561265257815481890152600182019150602081019050612633565b838801955050505b50505092915050565b6000612670602583613487565b91507f68747470733a2f2f6e6674707265766965772e30786465762e636f6465732f3f60008301527f636f64653d0000000000000000000000000000000000000000000000000000006020830152602582019050919050565b60006126d6603283613476565b91507f4552433732313a207472616e7366657220746f206e6f6e20455243373231526560008301527f63656976657220696d706c656d656e74657200000000000000000000000000006020830152604082019050919050565b600061273c601c83613476565b91507f4552433732313a20746f6b656e20616c7265616479206d696e746564000000006000830152602082019050919050565b600061277c600a83613487565b91507f54484952445f574f5244000000000000000000000000000000000000000000006000830152600a82019050919050565b60006127bc602483613476565b91507f4552433732313a207472616e7366657220746f20746865207a65726f2061646460008301527f72657373000000000000000000000000000000000000000000000000000000006020830152604082019050919050565b6000612822601983613476565b91507f4552433732313a20617070726f766520746f2063616c6c6572000000000000006000830152602082019050919050565b6000612862606383613487565b91507f222c20226465736372697074696f6e223a20224120686967686c79206163636c60008301527f61696d656420636f6c6c656374696f6e206f6620737175617265732e222c202260208301527f696d616765223a2022646174613a696d6167652f7376672b786d6c3b6261736560408301527f36342c00000000000000000000000000000000000000000000000000000000006060830152606382019050919050565b6000612914600b83613487565b91507f5345434f4e445f574f52440000000000000000000000000000000000000000006000830152600b82019050919050565b6000612954602c83613476565b91507f4552433732313a206f70657261746f7220717565727920666f72206e6f6e657860008301527f697374656e7420746f6b656e00000000000000000000000000000000000000006020830152604082019050919050565b60006129ba600d83613487565b91507f3c2f746578743e3c2f7376673e000000000000000000000000000000000000006000830152600d82019050919050565b60006129fa603883613476565b91507f4552433732313a20617070726f76652063616c6c6572206973206e6f74206f7760008301527f6e6572206e6f7220617070726f76656420666f7220616c6c00000000000000006020830152604082019050919050565b6000612a60602a83613476565b91507f4552433732313a2062616c616e636520717565727920666f7220746865207a6560008301527f726f2061646472657373000000000000000000000000000000000000000000006020830152604082019050919050565b6000612ac6602983613476565b91507f4552433732313a206f776e657220717565727920666f72206e6f6e657869737460008301527f656e7420746f6b656e00000000000000000000000000000000000000000000006020830152604082019050919050565b6000612b2c602e83613476565b91507f45524337323155524953746f726167653a2055524920736574206f66206e6f6e60008301527f6578697374656e7420746f6b656e0000000000000000000000000000000000006020830152604082019050919050565b6000612b92600283613487565b91507f227d0000000000000000000000000000000000000000000000000000000000006000830152600282019050919050565b6000612bd2602083613476565b91507f4552433732313a206d696e7420746f20746865207a65726f20616464726573736000830152602082019050919050565b6000612c12603183613476565b91507f45524337323155524953746f726167653a2055524920717565727920666f722060008301527f6e6f6e6578697374656e7420746f6b656e0000000000000000000000000000006020830152604082019050919050565b6000612c78602c83613476565b91507f4552433732313a20617070726f76656420717565727920666f72206e6f6e657860008301527f697374656e7420746f6b656e00000000000000000000000000000000000000006020830152604082019050919050565b6000612cde602983613476565b91507f4552433732313a207472616e73666572206f6620746f6b656e2074686174206960008301527f73206e6f74206f776e00000000000000000000000000000000000000000000006020830152604082019050919050565b6000612d44602f83613476565b91507f4552433732314d657461646174613a2055524920717565727920666f72206e6f60008301527f6e6578697374656e7420746f6b656e00000000000000000000000000000000006020830152604082019050919050565b6000612daa600a83613487565b91507f7b226e616d65223a2022000000000000000000000000000000000000000000006000830152600a82019050919050565b6000612dea602183613476565b91507f4552433732313a20617070726f76616c20746f2063757272656e74206f776e6560008301527f72000000000000000000000000000000000000000000000000000000000000006020830152604082019050919050565b6000612e50600a83613487565b91507f46495253545f574f5244000000000000000000000000000000000000000000006000830152600a82019050919050565b6000612e90601d83613487565b91507f646174613a6170706c69636174696f6e2f6a736f6e3b6261736536342c0000006000830152601d82019050919050565b6000612ed0603183613476565b91507f4552433732313a207472616e736665722063616c6c6572206973206e6f74206f60008301527f776e6572206e6f7220617070726f7665640000000000000000000000000000006020830152604082019050919050565b612f3281613611565b82525050565b6000612f4482846125b3565b915081905092915050565b6000612f5b82856125b3565b9150612f6782846125b3565b91508190509392505050565b6000612f7f82866125b3565b9150612f8b82856125b3565b9150612f9782846125b3565b9150819050949350505050565b6000612fb082876125e4565b9150612fbc82866125b3565b9150612fc882856125b3565b9150612fd482846125b3565b9150612fdf826129ad565b915081905095945050505050565b6000612ff882612663565b915061300482846125b3565b915081905092915050565b600061301a8261276f565b915061302682846125b3565b915081905092915050565b600061303c82612907565b915061304882846125b3565b915081905092915050565b600061305e82612d9d565b915061306a82856125b3565b915061307582612855565b915061308182846125b3565b915061308c82612b85565b91508190509392505050565b60006130a382612e43565b91506130af82846125b3565b915081905092915050565b60006130c582612e83565b91506130d182846125b3565b915081905092915050565b60006020820190506130f16000830184612523565b92915050565b600060808201905061310c6000830187612523565b6131196020830186612523565b6131266040830185612f29565b81810360608301526131388184612541565b905095945050505050565b60006020820190506131586000830184612532565b92915050565b60006020820190508181036000830152613178818461257a565b905092915050565b6000606082019050818103600083015261319a818661257a565b90506131a96020830185612f29565b6131b66040830184612523565b949350505050565b600060208201905081810360008301526131d7816126c9565b9050919050565b600060208201905081810360008301526131f78161272f565b9050919050565b60006020820190508181036000830152613217816127af565b9050919050565b6000602082019050818103600083015261323781612815565b9050919050565b6000602082019050818103600083015261325781612947565b9050919050565b60006020820190508181036000830152613277816129ed565b9050919050565b6000602082019050818103600083015261329781612a53565b9050919050565b600060208201905081810360008301526132b781612ab9565b9050919050565b600060208201905081810360008301526132d781612b1f565b9050919050565b600060208201905081810360008301526132f781612bc5565b9050919050565b6000602082019050818103600083015261331781612c05565b9050919050565b6000602082019050818103600083015261333781612c6b565b9050919050565b6000602082019050818103600083015261335781612cd1565b9050919050565b6000602082019050818103600083015261337781612d37565b9050919050565b6000602082019050818103600083015261339781612ddd565b9050919050565b600060208201905081810360008301526133b781612ec3565b9050919050565b60006020820190506133d36000830184612f29565b92915050565b6000604051905081810181811067ffffffffffffffff82111715613400576133ff613796565b5b8060405250919050565b600067ffffffffffffffff82111561342557613424613796565b5b601f19601f8301169050602081019050919050565b60008190508160005260206000209050919050565b600081519050919050565b600081519050919050565b600082825260208201905092915050565b600082825260208201905092915050565b600081905092915050565b600061349d82613611565b91506134a883613611565b9250827fffffffffffffffffffffffffffffffffffffffffffffffffffffffffffffffff038211156134dd576134dc613709565b5b828201905092915050565b60006134f382613611565b91506134fe83613611565b92508261350e5761350d613738565b5b828204905092915050565b600061352482613611565b915061352f83613611565b9250817fffffffffffffffffffffffffffffffffffffffffffffffffffffffffffffffff048311821515161561356857613567613709565b5b828202905092915050565b600061357e82613611565b915061358983613611565b92508282101561359c5761359b613709565b5b828203905092915050565b60006135b2826135f1565b9050919050565b60008115159050919050565b60007fffffffff0000000000000000000000000000000000000000000000000000000082169050919050565b600073ffffffffffffffffffffffffffffffffffffffff82169050919050565b6000819050919050565b82818337600083830152505050565b60005b8381101561364857808201518184015260208101905061362d565b83811115613657576000848401525b50505050565b6000600282049050600182168061367557607f821691505b6020821081141561368957613688613767565b5b50919050565b600061369a82613611565b91507fffffffffffffffffffffffffffffffffffffffffffffffffffffffffffffffff8214156136cd576136cc613709565b5b600182019050919050565b60006136e382613611565b91506136ee83613611565b9250826136fe576136fd613738565b5b828206905092915050565b7f4e487b7100000000000000000000000000000000000000000000000000000000600052601160045260246000fd5b7f4e487b7100000000000000000000000000000000000000000000000000000000600052601260045260246000fd5b7f4e487b7100000000000000000000000000000000000000000000000000000000600052602260045260246000fd5b7f4e487b7100000000000000000000000000000000000000000000000000000000600052604160045260246000fd5b6000601f19601f8301169050919050565b6137df816135a7565b81146137ea57600080fd5b50565b6137f6816135b9565b811461380157600080fd5b50565b61380d816135c5565b811461381857600080fd5b50565b61382481613611565b811461382f57600080fd5b5056fe416e204e465420772f20494420257320686173206265656e206d696e74656420746f2025734142434445464748494a4b4c4d4e4f505152535455565758595a6162636465666768696a6b6c6d6e6f707172737475767778797a303132333435363738392b2fa2646970667358221220efa80ed2c5da403125dfc1db0528fdb1151896b0f224a49f3f0c0540200d792264736f6c634300080000333c73766720786d6c6e733d27687474703a2f2f7777772e77332e6f72672f323030302f73766727207072657365727665417370656374526174696f3d27784d696e594d696e206d656574272076696577426f783d273020302033353020333530273e3c7374796c653e2e62617365207b2066696c6c3a2077686974653b20666f6e742d66616d696c793a2073657269663b20666f6e742d73697a653a20323470783b207d3c2f7374796c653e3c726563742077696474683d273130302527206865696768743d2731303025272066696c6c3d27626c61636b27202f3e3c7465787420783d273530252720793d273530252720636c6173733d27626173652720646f6d696e616e742d626173656c696e653d276d6964646c652720746578742d616e63686f723d276d6964646c65273e",
  "linkReferences": {},
  "deployedLinkReferences": {}
}